{
  "address": "0x6151d6b7e1B0beb302266D3954267067A13d48aa",
  "abi": [
    {
      "inputs": [],
      "stateMutability": "nonpayable",
      "type": "constructor"
    },
    {
      "inputs": [
        {
          "internalType": "address",
          "name": "target",
          "type": "address"
        }
      ],
      "name": "AddressEmptyCode",
      "type": "error"
    },
    {
      "inputs": [
        {
          "internalType": "address",
          "name": "account",
          "type": "address"
        }
      ],
      "name": "AddressInsufficientBalance",
      "type": "error"
    },
    {
      "inputs": [],
      "name": "BadInput",
      "type": "error"
    },
    {
      "inputs": [
        {
          "internalType": "address",
          "name": "implementation",
          "type": "address"
        }
      ],
      "name": "ERC1967InvalidImplementation",
      "type": "error"
    },
    {
      "inputs": [],
      "name": "ERC1967NonPayable",
      "type": "error"
    },
    {
      "inputs": [],
      "name": "FailedInnerCall",
      "type": "error"
    },
    {
      "inputs": [],
      "name": "InvalidInitialization",
      "type": "error"
    },
    {
      "inputs": [],
      "name": "NotInitializing",
      "type": "error"
    },
    {
      "inputs": [
        {
          "internalType": "address",
          "name": "owner",
          "type": "address"
        }
      ],
      "name": "OwnableInvalidOwner",
      "type": "error"
    },
    {
      "inputs": [
        {
          "internalType": "address",
          "name": "account",
          "type": "address"
        }
      ],
      "name": "OwnableUnauthorizedAccount",
      "type": "error"
    },
    {
      "inputs": [],
      "name": "ReentrancyGuardReentrantCall",
      "type": "error"
    },
    {
      "inputs": [
        {
          "internalType": "address",
          "name": "token",
          "type": "address"
        }
      ],
      "name": "SafeERC20FailedOperation",
      "type": "error"
    },
    {
      "inputs": [],
      "name": "UUPSUnauthorizedCallContext",
      "type": "error"
    },
    {
      "inputs": [
        {
          "internalType": "bytes32",
          "name": "slot",
          "type": "bytes32"
        }
      ],
      "name": "UUPSUnsupportedProxiableUUID",
      "type": "error"
    },
    {
      "inputs": [
        {
          "internalType": "uint16",
          "name": "type_",
          "type": "uint16"
        }
      ],
      "name": "UnsupportedTokenType",
      "type": "error"
    },
    {
      "inputs": [],
      "name": "UpgradesDisabled",
      "type": "error"
    },
    {
      "anonymous": false,
      "inputs": [],
      "name": "ContractUpgradesDisabled",
      "type": "event"
    },
    {
      "anonymous": false,
      "inputs": [
        {
          "indexed": false,
          "internalType": "uint64",
          "name": "version",
          "type": "uint64"
        }
      ],
      "name": "Initialized",
      "type": "event"
    },
    {
      "anonymous": false,
      "inputs": [
        {
          "indexed": true,
          "internalType": "address",
          "name": "previousOwner",
          "type": "address"
        },
        {
          "indexed": true,
          "internalType": "address",
          "name": "newOwner",
          "type": "address"
        }
      ],
      "name": "OwnershipTransferStarted",
      "type": "event"
    },
    {
      "anonymous": false,
      "inputs": [
        {
          "indexed": true,
          "internalType": "address",
          "name": "previousOwner",
          "type": "address"
        },
        {
          "indexed": true,
          "internalType": "address",
          "name": "newOwner",
          "type": "address"
        }
      ],
      "name": "OwnershipTransferred",
      "type": "event"
    },
    {
      "anonymous": false,
      "inputs": [
        {
          "indexed": true,
          "internalType": "address",
          "name": "newRecipient",
          "type": "address"
        }
      ],
      "name": "TipRecipientSet",
      "type": "event"
    },
    {
      "anonymous": false,
      "inputs": [
        {
          "indexed": true,
          "internalType": "address",
          "name": "implementation",
          "type": "address"
        }
      ],
      "name": "Upgraded",
      "type": "event"
    },
    {
      "inputs": [],
      "name": "UPGRADE_INTERFACE_VERSION",
      "outputs": [
        {
          "internalType": "string",
          "name": "",
          "type": "string"
        }
      ],
      "stateMutability": "view",
      "type": "function"
    },
    {
      "inputs": [],
      "name": "acceptOwnership",
      "outputs": [],
      "stateMutability": "nonpayable",
      "type": "function"
    },
    {
      "inputs": [
        {
          "internalType": "address payable[]",
          "name": "to",
          "type": "address[]"
        },
        {
          "internalType": "address[]",
          "name": "tokens",
          "type": "address[]"
        },
        {
          "internalType": "uint16[]",
          "name": "types",
          "type": "uint16[]"
        },
        {
          "internalType": "uint256[]",
          "name": "ids",
          "type": "uint256[]"
        },
        {
          "internalType": "uint256[]",
          "name": "values",
          "type": "uint256[]"
        }
      ],
      "name": "beamTokens",
      "outputs": [],
      "stateMutability": "payable",
      "type": "function"
    },
    {
      "inputs": [],
      "name": "disableUpgrades",
      "outputs": [],
      "stateMutability": "nonpayable",
      "type": "function"
    },
    {
      "inputs": [
        {
          "internalType": "address",
          "name": "owner",
          "type": "address"
        },
        {
          "internalType": "address",
          "name": "operator",
          "type": "address"
        },
        {
          "internalType": "address[]",
          "name": "tokens",
          "type": "address[]"
        },
        {
          "internalType": "uint16[]",
          "name": "types",
          "type": "uint16[]"
        },
        {
          "internalType": "uint256[]",
          "name": "ids",
          "type": "uint256[]"
        },
        {
          "internalType": "uint256[]",
          "name": "values",
          "type": "uint256[]"
        }
      ],
      "name": "getApprovals",
      "outputs": [
        {
          "internalType": "bool[]",
          "name": "",
          "type": "bool[]"
        }
      ],
      "stateMutability": "view",
      "type": "function"
    },
    {
      "inputs": [],
      "name": "initialize",
      "outputs": [],
      "stateMutability": "nonpayable",
      "type": "function"
    },
    {
      "inputs": [],
      "name": "owner",
      "outputs": [
        {
          "internalType": "address",
          "name": "",
          "type": "address"
        }
      ],
      "stateMutability": "view",
      "type": "function"
    },
    {
      "inputs": [],
      "name": "pendingOwner",
      "outputs": [
        {
          "internalType": "address",
          "name": "",
          "type": "address"
        }
      ],
      "stateMutability": "view",
      "type": "function"
    },
    {
      "inputs": [],
      "name": "proxiableUUID",
      "outputs": [
        {
          "internalType": "bytes32",
          "name": "",
          "type": "bytes32"
        }
      ],
      "stateMutability": "view",
      "type": "function"
    },
    {
      "inputs": [
        {
          "internalType": "address payable",
          "name": "to",
          "type": "address"
        },
        {
          "internalType": "address",
          "name": "token",
          "type": "address"
        },
        {
          "internalType": "uint16",
          "name": "type_",
          "type": "uint16"
        },
        {
          "internalType": "uint256",
          "name": "id",
          "type": "uint256"
        },
        {
          "internalType": "uint256",
          "name": "value",
          "type": "uint256"
        }
      ],
      "name": "recoverFunds",
      "outputs": [],
      "stateMutability": "nonpayable",
      "type": "function"
    },
    {
      "inputs": [],
      "name": "renounceOwnership",
      "outputs": [],
      "stateMutability": "nonpayable",
      "type": "function"
    },
    {
      "inputs": [
        {
          "internalType": "address payable",
          "name": "newRecipient",
          "type": "address"
        }
      ],
      "name": "setTipRecipient",
      "outputs": [],
      "stateMutability": "nonpayable",
      "type": "function"
    },
    {
      "inputs": [
        {
          "internalType": "address",
          "name": "newOwner",
          "type": "address"
        }
      ],
      "name": "transferOwnership",
      "outputs": [],
      "stateMutability": "nonpayable",
      "type": "function"
    },
    {
      "inputs": [
        {
          "internalType": "address",
          "name": "newImplementation",
          "type": "address"
        },
        {
          "internalType": "bytes",
          "name": "data",
          "type": "bytes"
        }
      ],
      "name": "upgradeToAndCall",
      "outputs": [],
      "stateMutability": "payable",
      "type": "function"
    },
    {
      "inputs": [],
      "name": "upgradesDisabled",
      "outputs": [
        {
          "internalType": "bool",
          "name": "",
          "type": "bool"
        }
      ],
      "stateMutability": "view",
      "type": "function"
    },
    {
      "stateMutability": "payable",
      "type": "receive"
    }
  ],
  "transactionHash": "0x3080dd2f14de93bb6fd64047b3f966d8ff5bc4efe9f5f6ee4bdaa573e2442eb5",
  "args": [],
  "numDeployments": 1,
  "solcInputHash": "f2be7ce0816d2ef42397964e988b47cd",
  "bytecode": "0x60a06040523060805234801561001457600080fd5b5061001d610022565b6100d4565b7ff0c57e16840df040f15088dc2f81fe391c3923bec73e23a9662efc9c229c6a00805468010000000000000000900460ff16156100725760405163f92ee8a960e01b815260040160405180910390fd5b80546001600160401b03908116146100d15780546001600160401b0319166001600160401b0390811782556040519081527fc7f505b2f371ae2175ee4913f4499e1f2633a7b5936321eed1cdaeb6115181d29060200160405180910390a15b50565b60805161236e6100fd60003960008181610af201528181610b1b0152610d91015261236e6000f3fe6080604052600436106100ec5760003560e01c80638da5cb5b1161008a578063e30c397811610059578063e30c397814610287578063ec6690361461029c578063f2fde38b146102b1578063f9b278c0146102d157600080fd5b80638da5cb5b146101b75780639e75fc28146101f1578063ad3cb1cc1461021e578063b87810cb1461027457600080fd5b806379ba5097116100c657806379ba50971461014d5780637c4b0a05146101625780638129fc1c14610182578063882b466f1461019757600080fd5b80634f1ef286146100fb57806352d1902d14610110578063715018a61461013857600080fd5b366100f657600080fd5b600080fd5b61010e610109366004611e7f565b61030c565b005b34801561011c57600080fd5b5061012561032b565b6040519081526020015b60405180910390f35b34801561014457600080fd5b5061010e61035a565b34801561015957600080fd5b5061010e61036e565b34801561016e57600080fd5b5061010e61017d366004611f61565b6103ee565b34801561018e57600080fd5b5061010e6104d7565b3480156101a357600080fd5b5061010e6101b2366004611f90565b6106b2565b3480156101c357600080fd5b506101cc6106f9565b60405173ffffffffffffffffffffffffffffffffffffffff909116815260200161012f565b3480156101fd57600080fd5b5061021161020c366004612035565b61073b565b60405161012f919061211d565b34801561022a57600080fd5b506102676040518060400160405280600581526020017f352e302e3000000000000000000000000000000000000000000000000000000081525081565b60405161012f9190612187565b61010e6102823660046121d8565b61075e565b34801561029357600080fd5b506101cc610935565b3480156102a857600080fd5b5061010e61095e565b3480156102bd57600080fd5b5061010e6102cc366004611f61565b610a23565b3480156102dd57600080fd5b5060005474010000000000000000000000000000000000000000900460ff16604051901515815260200161012f565b610314610ada565b61031d82610bde565b6103278282610c3b565b5050565b6000610335610d79565b507f360894a13ba1a3210667c828492db98dca3e2076cc3735a920a3ca505d382bbc90565b610362610de8565b61036c6000610e40565b565b3380610378610935565b73ffffffffffffffffffffffffffffffffffffffff16146103e2576040517f118cdaa700000000000000000000000000000000000000000000000000000000815273ffffffffffffffffffffffffffffffffffffffff821660048201526024015b60405180910390fd5b6103eb81610e40565b50565b6103f6610de8565b73ffffffffffffffffffffffffffffffffffffffff81161580610433575060005473ffffffffffffffffffffffffffffffffffffffff8281169116145b1561046a576040517f2bb9acf700000000000000000000000000000000000000000000000000000000815260040160405180910390fd5b600080547fffffffffffffffffffffffff00000000000000000000000000000000000000001673ffffffffffffffffffffffffffffffffffffffff8316908117825560405190917f2ca53b2cf849c828dfec507581ff8ea2d39c24663570589335afbe6a12fca07791a250565b7ff0c57e16840df040f15088dc2f81fe391c3923bec73e23a9662efc9c229c6a00805468010000000000000000810460ff16159067ffffffffffffffff166000811580156105225750825b905060008267ffffffffffffffff16600114801561053f5750303b155b90508115801561054d575080155b15610584576040517ff92ee8a900000000000000000000000000000000000000000000000000000000815260040160405180910390fd5b84547fffffffffffffffffffffffffffffffffffffffffffffffff000000000000000016600117855583156105e55784547fffffffffffffffffffffffffffffffffffffffffffffff00ffffffffffffffff16680100000000000000001785555b6105ee33610e90565b6105f6610ee8565b600080547fffffffffffffffffffffffff00000000000000000000000000000000000000001633908117825560405190917f2ca53b2cf849c828dfec507581ff8ea2d39c24663570589335afbe6a12fca07791a283156106ab5784547fffffffffffffffffffffffffffffffffffffffffffffff00ffffffffffffffff168555604051600181527fc7f505b2f371ae2175ee4913f4499e1f2633a7b5936321eed1cdaeb6115181d29060200160405180910390a15b5050505050565b6106ba610f16565b6106c2610de8565b6106d0308686868686610f97565b6106ab60017f9b779b17422d0df92223018b32b4d1fa46e071723d6817e2486d003becc55f0055565b6000807f9016d09d72d40fdae2fd8ceac6b6234c7706214fd39c1cd1e609a0528c1993005b5473ffffffffffffffffffffffffffffffffffffffff1692915050565b606061074f8b8b8b8b8b8b8b8b8b8b61118a565b9b9a5050505050505050505050565b610766610f16565b6001891189158061077f575080801561077f5750898814155b80610788575087155b806107935750878614155b8061079e5750878414155b806107a95750878214155b156107e0576040517f2bb9acf700000000000000000000000000000000000000000000000000000000815260040160405180910390fd5b60005b888110156108d5576108cd3383610821578d8d6000818110610807576108076122a3565b905060200201602081019061081c9190611f61565b610848565b8d8d84818110610833576108336122a3565b90506020020160208101906108489190611f61565b8c8c8581811061085a5761085a6122a3565b905060200201602081019061086f9190611f61565b8b8b86818110610881576108816122a3565b905060200201602081019061089691906122d2565b8a8a878181106108a8576108a86122a3565b905060200201358989888181106108c1576108c16122a3565b90506020020135610f97565b6001016107e3565b5047156108ff576000546108ff9073ffffffffffffffffffffffffffffffffffffffff164761139a565b5061092960017f9b779b17422d0df92223018b32b4d1fa46e071723d6817e2486d003becc55f0055565b50505050505050505050565b6000807f237e158222e3e6968b72b9db0d8043aacf074ad9f650f0d1606b4d82ee432c0061071e565b60005474010000000000000000000000000000000000000000900460ff16156109b3576040517f0e5daa9400000000000000000000000000000000000000000000000000000000815260040160405180910390fd5b6109bb610de8565b600080547fffffffffffffffffffffff00ffffffffffffffffffffffffffffffffffffffff16740100000000000000000000000000000000000000001781556040517fb18a70d219745e51e8753013d4eb7eece747722dbe1cd4c2672b261ef2f1c3039190a1565b610a2b610de8565b7f237e158222e3e6968b72b9db0d8043aacf074ad9f650f0d1606b4d82ee432c0080547fffffffffffffffffffffffff00000000000000000000000000000000000000001673ffffffffffffffffffffffffffffffffffffffff83169081178255610a946106f9565b73ffffffffffffffffffffffffffffffffffffffff167f38d16b8cac22d99fc7c124b9cd0de2d3fa1faef420bfe791d8c362d765e2270060405160405180910390a35050565b3073ffffffffffffffffffffffffffffffffffffffff7f0000000000000000000000000000000000000000000000000000000000000000161480610ba757507f000000000000000000000000000000000000000000000000000000000000000073ffffffffffffffffffffffffffffffffffffffff16610b8e7f360894a13ba1a3210667c828492db98dca3e2076cc3735a920a3ca505d382bbc5473ffffffffffffffffffffffffffffffffffffffff1690565b73ffffffffffffffffffffffffffffffffffffffff1614155b1561036c576040517fe07c8dba00000000000000000000000000000000000000000000000000000000815260040160405180910390fd5b60005474010000000000000000000000000000000000000000900460ff1615610c33576040517f0e5daa9400000000000000000000000000000000000000000000000000000000815260040160405180910390fd5b6103eb610de8565b8173ffffffffffffffffffffffffffffffffffffffff166352d1902d6040518163ffffffff1660e01b8152600401602060405180830381865afa925050508015610cc0575060408051601f3d9081017fffffffffffffffffffffffffffffffffffffffffffffffffffffffffffffffe0168201909252610cbd918101906122ed565b60015b610d0e576040517f4c9c8ce300000000000000000000000000000000000000000000000000000000815273ffffffffffffffffffffffffffffffffffffffff831660048201526024016103d9565b7f360894a13ba1a3210667c828492db98dca3e2076cc3735a920a3ca505d382bbc8114610d6a576040517faa1d49a4000000000000000000000000000000000000000000000000000000008152600481018290526024016103d9565b610d748383611470565b505050565b3073ffffffffffffffffffffffffffffffffffffffff7f0000000000000000000000000000000000000000000000000000000000000000161461036c576040517fe07c8dba00000000000000000000000000000000000000000000000000000000815260040160405180910390fd5b33610df16106f9565b73ffffffffffffffffffffffffffffffffffffffff161461036c576040517f118cdaa70000000000000000000000000000000000000000000000000000000081523360048201526024016103d9565b7f237e158222e3e6968b72b9db0d8043aacf074ad9f650f0d1606b4d82ee432c0080547fffffffffffffffffffffffff0000000000000000000000000000000000000000168155610327826114d3565b610e98611569565b73ffffffffffffffffffffffffffffffffffffffff81166103e2576040517f1e4fbdf7000000000000000000000000000000000000000000000000000000008152600060048201526024016103d9565b610ef0611569565b60017f9b779b17422d0df92223018b32b4d1fa46e071723d6817e2486d003becc55f0055565b7f9b779b17422d0df92223018b32b4d1fa46e071723d6817e2486d003becc55f0080547ffffffffffffffffffffffffffffffffffffffffffffffffffffffffffffffffe01610f91576040517f3ee5aeb500000000000000000000000000000000000000000000000000000000815260040160405180910390fd5b60029055565b73ffffffffffffffffffffffffffffffffffffffff85161580610fb8575080155b15610fef576040517f2bb9acf700000000000000000000000000000000000000000000000000000000815260040160405180910390fd5b8261ffff166102d103611092576040517f42842e0e00000000000000000000000000000000000000000000000000000000815273ffffffffffffffffffffffffffffffffffffffff87811660048301528681166024830152604482018490528516906342842e0e906064015b600060405180830381600087803b15801561107557600080fd5b505af1158015611089573d6000803e3d6000fd5b50505050611182565b8261ffff1661048303611117576040517ff242432a00000000000000000000000000000000000000000000000000000000815273ffffffffffffffffffffffffffffffffffffffff87811660048301528681166024830152604482018490526064820183905260a06084830152600060a483015285169063f242432a9060c40161105b565b8261ffff166014036111345761112f848787846115d0565b611182565b8261ffff1660000361114a5761112f858261139a565b6040517f68878ef200000000000000000000000000000000000000000000000000000000815261ffff841660048201526024016103d9565b505050505050565b606085151582151585151573ffffffffffffffffffffffffffffffffffffffff8e1615806111cc575073ffffffffffffffffffffffffffffffffffffffff8d16155b806111d557508a155b806111e857508280156111e857508a8914155b806111fb57508180156111fb57508a8514155b8061120e575080801561120e57508a8714155b15611245576040517f2bb9acf700000000000000000000000000000000000000000000000000000000815260040160405180910390fd5b8a67ffffffffffffffff81111561125e5761125e611e50565b604051908082528060200260200182016040528015611287578160200160208202803683370190505b50935060005b8b8110156113885761135e8f8f8f8f858181106112ac576112ac6122a3565b90506020020160208101906112c19190611f61565b876112e757856112df57866112d85761048361130e565b601461130e565b6102d161130e565b8e8e868181106112f9576112f96122a3565b905060200201602081019061130e91906122d2565b8661131a576000611334565b8d8d8781811061132c5761132c6122a3565b905060200201355b8861134057600161166b565b8c8c88818110611352576113526122a3565b9050602002013561166b565b858281518110611370576113706122a3565b9115156020928302919091019091015260010161128d565b505050509a9950505050505050505050565b804710156113d6576040517fcd7860590000000000000000000000000000000000000000000000000000000081523060048201526024016103d9565b60008273ffffffffffffffffffffffffffffffffffffffff168260405160006040518083038185875af1925050503d8060008114611430576040519150601f19603f3d011682016040523d82523d6000602084013e611435565b606091505b5050905080610d74576040517f1425ea4200000000000000000000000000000000000000000000000000000000815260040160405180910390fd5b61147982611a63565b60405173ffffffffffffffffffffffffffffffffffffffff8316907fbc7cd75a20ee27fd9adebab32041f755214dbc6bffa90cc0225b39da2e5c2d3b90600090a28051156114cb57610d748282611b32565b610327611bb5565b7f9016d09d72d40fdae2fd8ceac6b6234c7706214fd39c1cd1e609a0528c19930080547fffffffffffffffffffffffff0000000000000000000000000000000000000000811673ffffffffffffffffffffffffffffffffffffffff848116918217845560405192169182907f8be0079c531659141344cd1fd0a4f28419497f9722a3daafe3b4186f6b6457e090600090a3505050565b7ff0c57e16840df040f15088dc2f81fe391c3923bec73e23a9662efc9c229c6a005468010000000000000000900460ff1661036c576040517fd7e6bcf800000000000000000000000000000000000000000000000000000000815260040160405180910390fd5b6040805173ffffffffffffffffffffffffffffffffffffffff85811660248301528416604482015260648082018490528251808303909101815260849091019091526020810180517bffffffffffffffffffffffffffffffffffffffffffffffffffffffff167f23b872dd00000000000000000000000000000000000000000000000000000000179052611665908590611bed565b50505050565b60008361ffff1661048303611719576040517fe985e9c500000000000000000000000000000000000000000000000000000000815273ffffffffffffffffffffffffffffffffffffffff8881166004830152878116602483015286169063e985e9c590604401602060405180830381865afa1580156116ee573d6000803e3d6000fd5b505050506040513d601f19601f820116820180604052508101906117129190612306565b9050611a59565b8361ffff166102d10361195d578573ffffffffffffffffffffffffffffffffffffffff168773ffffffffffffffffffffffffffffffffffffffff1614806117f357506040517fe985e9c500000000000000000000000000000000000000000000000000000000815273ffffffffffffffffffffffffffffffffffffffff8881166004830152878116602483015286169063e985e9c590604401602060405180830381865afa1580156117cf573d6000803e3d6000fd5b505050506040513d601f19601f820116820180604052508101906117f39190612306565b8061171257506040517f081812fc0000000000000000000000000000000000000000000000000000000081526004810184905273ffffffffffffffffffffffffffffffffffffffff808816919087169063081812fc90602401602060405180830381865afa158015611869573d6000803e3d6000fd5b505050506040513d601f19601f8201168201806040525081019061188d9190612328565b73ffffffffffffffffffffffffffffffffffffffff1614801561171257506040517f6352211e0000000000000000000000000000000000000000000000000000000081526004810184905273ffffffffffffffffffffffffffffffffffffffff8089169190871690636352211e90602401602060405180830381865afa15801561191b573d6000803e3d6000fd5b505050506040513d601f19601f8201168201806040525081019061193f9190612328565b73ffffffffffffffffffffffffffffffffffffffff16149050611a59565b8361ffff16601403611a0d576040517fdd62ed3e00000000000000000000000000000000000000000000000000000000815273ffffffffffffffffffffffffffffffffffffffff8881166004830152878116602483015283919087169063dd62ed3e90604401602060405180830381865afa1580156119e0573d6000803e3d6000fd5b505050506040513d601f19601f82011682018060405250810190611a0491906122ed565b10159050611a59565b8361ffff16600003611a2157506001611a59565b6040517f68878ef200000000000000000000000000000000000000000000000000000000815261ffff851660048201526024016103d9565b9695505050505050565b8073ffffffffffffffffffffffffffffffffffffffff163b600003611acc576040517f4c9c8ce300000000000000000000000000000000000000000000000000000000815273ffffffffffffffffffffffffffffffffffffffff821660048201526024016103d9565b7f360894a13ba1a3210667c828492db98dca3e2076cc3735a920a3ca505d382bbc80547fffffffffffffffffffffffff00000000000000000000000000000000000000001673ffffffffffffffffffffffffffffffffffffffff92909216919091179055565b60606000808473ffffffffffffffffffffffffffffffffffffffff1684604051611b5c9190612345565b600060405180830381855af49150503d8060008114611b97576040519150601f19603f3d011682016040523d82523d6000602084013e611b9c565b606091505b5091509150611bac858383611c83565b95945050505050565b341561036c576040517fb398979f00000000000000000000000000000000000000000000000000000000815260040160405180910390fd5b6000611c0f73ffffffffffffffffffffffffffffffffffffffff841683611d15565b90508051600014158015611c34575080806020019051810190611c329190612306565b155b15610d74576040517f5274afe700000000000000000000000000000000000000000000000000000000815273ffffffffffffffffffffffffffffffffffffffff841660048201526024016103d9565b606082611c9857611c9382611d23565b611d0e565b8151158015611cbc575073ffffffffffffffffffffffffffffffffffffffff84163b155b15611d0b576040517f9996b31500000000000000000000000000000000000000000000000000000000815273ffffffffffffffffffffffffffffffffffffffff851660048201526024016103d9565b50805b9392505050565b6060611d0e83836000611d65565b805115611d335780518082602001fd5b6040517f1425ea4200000000000000000000000000000000000000000000000000000000815260040160405180910390fd5b606081471015611da3576040517fcd7860590000000000000000000000000000000000000000000000000000000081523060048201526024016103d9565b6000808573ffffffffffffffffffffffffffffffffffffffff168486604051611dcc9190612345565b60006040518083038185875af1925050503d8060008114611e09576040519150601f19603f3d011682016040523d82523d6000602084013e611e0e565b606091505b5091509150611a59868383611c83565b73ffffffffffffffffffffffffffffffffffffffff811681146103eb57600080fd5b8035611e4b81611e1e565b919050565b7f4e487b7100000000000000000000000000000000000000000000000000000000600052604160045260246000fd5b60008060408385031215611e9257600080fd5b8235611e9d81611e1e565b9150602083013567ffffffffffffffff80821115611eba57600080fd5b818501915085601f830112611ece57600080fd5b813581811115611ee057611ee0611e50565b604051601f82017fffffffffffffffffffffffffffffffffffffffffffffffffffffffffffffffe0908116603f01168101908382118183101715611f2657611f26611e50565b81604052828152886020848701011115611f3f57600080fd5b8260208601602083013760006020848301015280955050505050509250929050565b600060208284031215611f7357600080fd5b8135611d0e81611e1e565b803561ffff81168114611e4b57600080fd5b600080600080600060a08688031215611fa857600080fd5b8535611fb381611e1e565b94506020860135611fc381611e1e565b9350611fd160408701611f7e565b94979396509394606081013594506080013592915050565b60008083601f840112611ffb57600080fd5b50813567ffffffffffffffff81111561201357600080fd5b6020830191508360208260051b850101111561202e57600080fd5b9250929050565b60008060008060008060008060008060c08b8d03121561205457600080fd5b61205d8b611e40565b995061206b60208c01611e40565b985060408b013567ffffffffffffffff8082111561208857600080fd5b6120948e838f01611fe9565b909a50985060608d01359150808211156120ad57600080fd5b6120b98e838f01611fe9565b909850965060808d01359150808211156120d257600080fd5b6120de8e838f01611fe9565b909650945060a08d01359150808211156120f757600080fd5b506121048d828e01611fe9565b915080935050809150509295989b9194979a5092959850565b6020808252825182820181905260009190848201906040850190845b81811015612157578351151583529284019291840191600101612139565b50909695505050505050565b60005b8381101561217e578181015183820152602001612166565b50506000910152565b60208152600082518060208401526121a6816040850160208701612163565b601f017fffffffffffffffffffffffffffffffffffffffffffffffffffffffffffffffe0169190910160400192915050565b60008060008060008060008060008060a08b8d0312156121f757600080fd5b8a3567ffffffffffffffff8082111561220f57600080fd5b61221b8e838f01611fe9565b909c509a5060208d013591508082111561223457600080fd5b6122408e838f01611fe9565b909a50985060408d013591508082111561225957600080fd5b6122658e838f01611fe9565b909850965060608d013591508082111561227e57600080fd5b61228a8e838f01611fe9565b909650945060808d01359150808211156120f757600080fd5b7f4e487b7100000000000000000000000000000000000000000000000000000000600052603260045260246000fd5b6000602082840312156122e457600080fd5b611d0e82611f7e565b6000602082840312156122ff57600080fd5b5051919050565b60006020828403121561231857600080fd5b81518015158114611d0e57600080fd5b60006020828403121561233a57600080fd5b8151611d0e81611e1e565b60008251612357818460208701612163565b919091019291505056fea164736f6c6343000819000a",
  "devdoc": {
    "author": "xtools-at <github.com/xtools-at>",
    "errors": {
      "AddressEmptyCode(address)": [
        {
          "details": "There's no code at `target` (it is not a contract)."
        }
      ],
      "AddressInsufficientBalance(address)": [
        {
          "details": "The ETH balance of the account is not enough to perform the operation."
        }
      ],
      "ERC1967InvalidImplementation(address)": [
        {
          "details": "The `implementation` of the proxy is invalid."
        }
      ],
      "ERC1967NonPayable()": [
        {
          "details": "An upgrade function sees `msg.value > 0` that may be lost."
        }
      ],
      "FailedInnerCall()": [
        {
          "details": "A call to an address target failed. The target may have reverted."
        }
      ],
      "InvalidInitialization()": [
        {
          "details": "The contract is already initialized."
        }
      ],
      "NotInitializing()": [
        {
          "details": "The contract is not initializing."
        }
      ],
      "OwnableInvalidOwner(address)": [
        {
          "details": "The owner is not a valid owner account. (eg. `address(0)`)"
        }
      ],
      "OwnableUnauthorizedAccount(address)": [
        {
          "details": "The caller account is not authorized to perform an operation."
        }
      ],
      "ReentrancyGuardReentrantCall()": [
        {
          "details": "Unauthorized reentrant call."
        }
      ],
      "SafeERC20FailedOperation(address)": [
        {
          "details": "An operation with an ERC20 token failed."
        }
      ],
      "UUPSUnauthorizedCallContext()": [
        {
          "details": "The call is from an unauthorized context."
        }
      ],
      "UUPSUnsupportedProxiableUUID(bytes32)": [
        {
          "details": "The storage `slot` is unsupported as a UUID."
        }
      ]
    },
    "events": {
      "Initialized(uint64)": {
        "details": "Triggered when the contract has been initialized or reinitialized."
      },
      "Upgraded(address)": {
        "details": "Emitted when the implementation is upgraded."
      }
    },
    "kind": "dev",
    "methods": {
      "acceptOwnership()": {
        "details": "The new owner accepts the ownership transfer."
      },
      "beamTokens(address[],address[],uint16[],uint256[],uint256[])": {
        "details": "Multi-transfer tokens and NFTs to a single or many recipients.",
        "params": {
          "ids": "Identifier numbers of tokens (ERC-721 and -1155 only).",
          "to": "Addresses of token recipients. Must have a length of 1 or `tokens.length`.",
          "tokens": "Contract addresses of tokens (use 0x0 for native transfers).",
          "types": "Types of tokens (supported: 0|20|721|1155).",
          "values": "Quantities of tokens to transfer."
        }
      },
      "constructor": {
        "custom:oz-upgrades-unsafe-allow": "constructor"
      },
      "disableUpgrades()": {
        "details": "Permanently disables upgrades for the contract. Owner only."
      },
      "getApprovals(address,address,address[],uint16[],uint256[],uint256[])": {
        "details": "Checks approval state for tokens for the given `operator` address. This is a gas-intensive convenience method that is meant to be consumed by applications, and should preferably not be called from a smart contract directly.",
        "params": {
          "ids": "Identifier of tokens. Only used for ERC721, can be left empty otherwise.",
          "operator": "Spender of tokens (e.g. TokenBeamer contract).",
          "owner": "Owner of tokens.",
          "tokens": "Contract addresses of tokens.",
          "types": "Types of tokens (supported: 20|721|1155). Only used for ERC20, can be left empty otherwise.",
          "values": "Quantities of approved tokens. Only used for ERC20, can be left empty otherwise."
        },
        "returns": {
          "_0": "approvalStates Array of booleans to indicate whether `owner`'s `token` is approved for `operator`."
        }
      },
      "owner()": {
        "details": "Returns the address of the current owner."
      },
      "pendingOwner()": {
        "details": "Returns the address of the pending owner."
      },
      "proxiableUUID()": {
        "details": "Implementation of the ERC1822 {proxiableUUID} function. This returns the storage slot used by the implementation. It is used to validate the implementation's compatibility when performing an upgrade. IMPORTANT: A proxy pointing at a proxiable contract should not be considered proxiable itself, because this risks bricking a proxy that upgrades to it, by delegating to itself until out of gas. Thus it is critical that this function revert if invoked through a proxy. This is guaranteed by the `notDelegated` modifier."
      },
      "recoverFunds(address,address,uint16,uint256,uint256)": {
        "details": "Recovers funds stuck in the contract. Owner only."
      },
      "renounceOwnership()": {
        "details": "Leaves the contract without owner. It will not be possible to call `onlyOwner` functions. Can only be called by the current owner. NOTE: Renouncing ownership will leave the contract without an owner, thereby disabling any functionality that is only available to the owner."
      },
      "setTipRecipient(address)": {
        "details": "Sets a new recipient for protocol tips. Owner only.",
        "params": {
          "newRecipient": "address of new tip recipient."
        }
      },
      "transferOwnership(address)": {
        "details": "Starts the ownership transfer of the contract to a new account. Replaces the pending transfer if there is one. Can only be called by the current owner."
      },
      "upgradeToAndCall(address,bytes)": {
        "custom:oz-upgrades-unsafe-allow-reachable": "delegatecall",
        "details": "Upgrade the implementation of the proxy to `newImplementation`, and subsequently execute the function call encoded in `data`. Calls {_authorizeUpgrade}. Emits an {Upgraded} event."
      },
      "upgradesDisabled()": {
        "details": "Returns the upgradeability state of the contract."
      }
    },
    "title": "TokenBeamer",
    "version": 1
  },
  "userdoc": {
    "kind": "user",
    "methods": {
      "getApprovals(address,address,address[],uint16[],uint256[],uint256[])": {
        "notice": "Default behaviour for empty types, ids and values parameters: Types (0 = native, 20 = ERC-20, 721 = ERC-721, 1155 = ERC-1155): - If types are provided, the contract uses them to check the approval state. - If types are not provided, the contract checks if ids are provided to defaut to ERC-721, then   checks for values to default to ERC-20, and if not, defaults to ERC-1155. Ids (only used for ERC-721): - If ids are provided, the contract uses them to check the approval state of corresponding ERC-721 id. - If ids are not provided, the contract defaults to ERC-721. Values (only used for ERC-20): - If values are provided, the contract uses them to check the approval amount of ERC-20. - If values are not provided, the contract defaults the value to 1."
      }
    },
    "notice": "A smart contract to facilitate batch token transfers (native, ERC-20, -721, -1155) and -approval checks.",
    "version": 1
  },
  "storageLayout": {
    "storage": [
      {
        "astId": 2302,
        "contract": "contracts/TokenBeamer.sol:TokenBeamer",
        "label": "_tipRecipient",
        "offset": 0,
        "slot": "0",
        "type": "t_address_payable"
      },
      {
        "astId": 2304,
        "contract": "contracts/TokenBeamer.sol:TokenBeamer",
        "label": "_upgradesDisabled",
        "offset": 20,
        "slot": "0",
        "type": "t_bool"
      }
    ],
    "types": {
      "t_address_payable": {
        "encoding": "inplace",
        "label": "address payable",
        "numberOfBytes": "20"
      },
      "t_bool": {
        "encoding": "inplace",
        "label": "bool",
        "numberOfBytes": "1"
      }
    }
  }
}